:100000000C9434000C9446000C9446000C9446006A
:100010000C9446000C9446000C9446000C94460048
:100020000C9446000C94AB040C9446000C944600CF
:100030000C9446000C9448000C9446000C94460026
:100040000C9446000C9446000C9446000C94460018
:100050000C9446000C9446000C9446000C94460008
:100060000C9446000C94460011241FBECFEFD4E040
:10007000DEBFCDBF11E0A0E0B1E001C01D92A23112
:10008000B107E1F70E94A4040C94DD040C94000075
:100090001F920F920FB60F9211248F939F9387EFA9
:1000A00092EC909385008093840091E090930401FA
:1000B00080910C01882319F490930C0102C01092D6
:1000C0000C0180910D018F5F80930D018C3309F538
:1000D00010920D01809110018F5F809310018C337D
:1000E000C1F410921001809111018F5F8093110172
:1000F0008C3051F480910E01813011F482E001C006
:1001000081E080930E0105C08D3019F481E0809369
:1001100011019F918F910F900FBE0F901F90189516
:10012000189B40C080910B018823F1F520911101AB
:10013000809102012817C9F4909110018091030168
:10014000981799F490910D0180910801981769F41E
:1001500090910E0180910701981739F480910A015E
:10016000882319F481E080930B0180910601281700
:10017000D9F490911001809105019817A9F49091FC
:100180000D0180910F01981779F490910E018091E3
:100190000901981749F480910A01813029F480936C
:1001A0000B01089510920B01089518B88BB1807857
:1001B0008BB90895982F8BB1847A8BB92B986330C3
:1001C00091F0643028F4613051F0623099F409C044
:1001D000653069F0653048F0663061F40AC0589ABD
:1001E00009C0599A07C05C9A05C05E9A03C05B9A21
:1001F00001C02B9A8FE388B98BB184628BB996309A
:10020000A1F1973078F4923021F1933030F49923B2
:10021000C9F0913009F040C018C0943001F1953018
:1002200008F51AC0993059F19A3028F4973001F145
:10023000983091F521C09B3059F19B3028F19C30CA
:1002400059F528C088B1807D1CC088B18B7D88B9E4
:10025000089588B1867C15C088B1837C12C088B1AE
:10026000897C08C088B1817E0CC088B1807E09C0BD
:1002700088B1837D88B909C088B1807C02C088B10B
:10028000817C88B95A98089542988BB18BB90895AA
:100290005D9808954298089518B808959C01220F1A
:1002A000331F81E006C085BB16BCA89BFECF205043
:1002B000314091E021303907B0F781E085BB822FD2
:1002C000819586BDA89BFECF0895CF93DF93EC0167
:1002D00011C08AEF90E00E944E018AEF90E00E94E8
:1002E0004E018AEF90E00E944E018AEF90E00E945A
:1002F0004E012197209769F7DF91CF9108950F93D1
:100300001F93CF93DF938C01C0E0D0E00DC02998FC
:100310002A9A8CE291E00E944E01299A2A988CE256
:1003200091E00E944E012196C017D10784F32998CD
:100330002A9882E390E00E946501C0E0D0E00DC001
:1003400029982A9A8CE291E00E944E01299A2A98D3
:100350008CE291E00E944E012196C017D10784F3F0
:1003600029982A98DF91CF911F910F9108958EECD3
:1003700084B98FEF87B98FE78AB981E385B984EAB9
:100380008BB98FE388B982E085BD85E080938100D9
:1003900021E020936F0087EF92EC9093850080938B
:1003A000840087E08093B1002093700088E58093FB
:1003B00011018093100180930D0110920B0178942C
:1003C00088EC90E00E947F012CE0209311011092B4
:1003D000100110920D0191E090930E018BE080933B
:1003E000020187E3809303011092080182E0809369
:1003F0000701209306011092050110920F019093BE
:10040000090110920A0108950F931F93CF93DF9370
:100410008C01C0E0D0E060C0809101018F5F8093CB
:100420000101809102018A3050F06AE00E94D104FB
:1004300061E00E94DA0082E390E00E944E01809128
:1004400002016AE00E94D104892F62E00E94DA0072
:1004500082E390E00E944E01809103016AE00E94D5
:10046000D10463E00E94DA0082E390E00E944E0132
:10047000809103016AE00E94D104892F64E00E9408
:10048000DA0082E390E00E944E0180910C018130FD
:1004900041F48AE065E00E94DA0082E390E00E9485
:1004A0004E0180910701813071F4809101018A3001
:1004B00050F0109201018CE066E00E94DA0082E3C5
:1004C00090E00E944E0118B88BB180788BB981E022
:1004D00090E00E9465012196C017D10708F49CCFD7
:1004E000DF91CF911F910F910895EF92FF921F938B
:1004F000CF93DF937C01C0E0D0E018E585C0809108
:1005000000018F5F80930001809111018A3050F0CB
:100510006AE00E94D10461E00E94DA0082E390E088
:100520000E944E01809111016AE00E94D104892F3E
:1005300062E00E94DA0082E390E00E944E01809126
:1005400010016AE00E94D10463E00E94DA0082E3B5
:1005500090E00E944E01809110016AE00E94D10457
:10056000892F64E00E94DA0082E390E00E944E014D
:1005700080910C01813041F48AE065E00E94DA004C
:1005800082E390E00E944E01189B1BC08BE064E068
:100590000E94DA0082E390E00E944E0180910B01FC
:1005A0008130B9F480910401813099F418B88BB18D
:1005B00080788BB984EF91E00E947F011092040152
:1005C00008C010920A0110930601109305011093C0
:1005D0000F0180910E01813071F48091000185300E
:1005E00050F0109200018CE066E00E94DA0082E395
:1005F00090E00E944E0118B88BB180788BB982E3ED
:1006000090E00E944E012196CE15DF0508F477CFC9
:10061000DF91CF911F91FF90EF900895BF92CF92FD
:10062000DF92EF92FF920F931F934F9930C020916A
:100630000B01213061F510920B0120930A011092F9
:100640000F0190911001892F875F809305013091F0
:1006500011013093060140910E01409309018C3342
:10066000B0F0935390930501832F8F5F8093060121
:100670008C3049F4413021F482E08093090107C0B5
:100680002093090104C08D3011F42093060183B139
:10069000807309F0A3C088EE93E00E94650183B1E6
:1006A000807329F09BC088EE93E00E94750283B1AD
:1006B0008073C9F3FF24EE24E39410E001E0A2E08C
:1006C000DA2EFBE3BF2EECE0CE2E4F9913C000E0F4
:1006D0008AEF90E00E94750218B88BB180788BB9D0
:1006E0008AEF90E00E9465010F5F033089F74F9B0E
:1006F000FECF78C01D9938C0153021F0FF24EE24BC
:10070000E3940DC0F39485E08F1548F4E3948EE1F3
:100710008E1520F4FF247EE1E72E01C0FF24809196
:1007200010018E0D809310018C33C8F08C53809390
:100730001001809111018F5F809311018D3011F4B0
:1007400000931101809111018C3049F480910E01C8
:10075000813019F4D0920E0102C000930E0184E69C
:1007600090E00E94650115E01C99AFCF143021F094
:10077000FF24EE24E3940DC0F39485E08F1548F434
:10078000E3948EE18E1520F4FF246EE1E62E01C085
:10079000FF24809110018E19809310018D33C0F0D9
:1007A000B092100180911101815080931101882332
:1007B00011F4C0921101809111018B3049F48091A4
:1007C0000E01813019F4D0920E0102C000930E0187
:1007D00084E690E00E94650114E077CFFF24EE24C8
:1007E000E39410E04F99A8C01092700088EE93E057
:1007F0000E9404024F999DC0109270000CC018B85E
:100800008BB180788BB98AEF90E00E9465018AEF06
:1008100090E00E9404024F9BF2CF01E052E0D52EFF
:100820004BE3B42E3CE0C32E84E690E00E94040229
:100830004F9913C010E08AEF90E00E94040218B8AC
:100840008BB180788BB98AEF90E00E9465011F5FC1
:10085000143089F74F9BFECF6CC01D9934C0153002
:1008600021F0FF24EE24E3940DC0F39485E08F156E
:1008700048F4E3948EE18E1520F4FF242EE1E22E5D
:1008800001C0FF24809103018E0D809303018C33FE
:10089000C8F08C5380930301809102018F5F809395
:1008A00002018D3011F400930201809102018C301D
:1008B00049F480910701813019F4D092070102C0F8
:1008C0000093070115E01C99AFCF143021F0FF24ED
:1008D000EE24E3940DC0F39485E08F1548F4E3947F
:1008E0008EE18E1520F4FF249EE1E92E01C0FF2445
:1008F000809103018E19809303018D33C0F0B09273
:10090000030180910201815080930201882311F438
:10091000C0920201809102018B3049F4809107015D
:10092000813019F4D092070102C00093070114E04E
:100930007BCF81E0809370001F910F91FF90EF902B
:10094000DF90CF90BF9008950E94B7010E940E03E0
:100950000E949000FBCF1F920F920FB60F921124AE
:100960002F933F934F935F936F937F938F939F93B7
:10097000AF93BF93EF93FF938AE090E00E947502DC
:10098000FF91EF91BF91AF919F918F917F916F9167
:100990005F914F913F912F910F900FBE0F901F903D
:1009A0001895991B79E004C0991F961708F0961BBB
:0E09B000881F7A95C9F780950895F894FFCFB7
:00000001FF
